:0400000007EF00F016
:0A00080072820BED08F09BEF0EF082
:10100000003738392F3435362A3132332D23303DED
:051010002B2569000022
:101016000600FACF4EF0FBCF4FF0D9CF50F0DACF23
:1010260051F0F2A819EF08F01BEF08F024EF08F0D2
:10103600F2A220EF08F022EF08F024EF08F052ECBD
:1010460010F0F0A629EF08F02BEF08F034EF08F0C7
:10105600F0A030EF08F032EF08F034EF08F050EC73
:1010660010F0F0A839EF08F03BEF08F044EF08F075
:10107600F0A240EF08F042EF08F044EF08F04EEC23
:1010860010F0F2A649EF08F04BEF08F066EF08F013
:10109600F2A050EF08F052EF08F066EF08F081A8D2
:1010A60057EF08F059EF08F066EF08F07104D8A47E
:1010B6005FEF08F061EF08F066EF08F0000E716E62
:1010C600000E09EC10F0F2A66BEF08F06DEF08F0D9
:1010D60088EF08F0F2A072EF08F074EF08F088EFDE
:1010E60008F081B879EF08F07BEF08F088EF08F098
:1010F6007150D8A481EF08F083EF08F088EF08F06C
:10110600010E716E010E09EC10F0F2A68DEF08F0DB
:101116008FEF08F0AAEF08F0F2A094EF08F096EF30
:1011260008F0AAEF08F081AA9BEF08F09DEF08F0FF
:10113600AAEF08F07004D8A4A3EF08F0A5EF08F012
:10114600AAEF08F0000E706E000EFCEC0FF0F2A68F
:10115600AFEF08F0B1EF08F0CCEF08F0F2A0B6EF71
:1011660008F0B8EF08F0CCEF08F081BABDEF08F050
:10117600BFEF08F0CCEF08F07050D8A4C5EF08F028
:10118600C7EF08F0CCEF08F0010E706E010EFCEC14
:101196000FF0F2A6D1EF08F0D3EF08F0EEEF08F06B
:1011A600F2A0D8EF08F0DAEF08F0EEEF08F081AC25
:1011B600DFEF08F0E1EF08F0EEEF08F06F04D8A4D7
:1011C600E7EF08F0E9EF08F0EEEF08F0000E6F6EBB
:1011D600000EEFEC0FF0F2A6F3EF08F0F5EF08F0D3
:1011E60010EF09F0F2A0FAEF08F0FCEF08F010EFAC
:1011F60009F081BC01EF09F003EF09F010EF09F0E7
:101206006F50D8A409EF09F00BEF09F010EF09F0C1
:10121600010E6F6E010EEFEC0FF0F2A615EF09F05E
:1012260017EF09F032EF09F0F2A01CEF09F01EEFFC
:1012360009F032EF09F081AE23EF09F025EF09F04E
:1012460032EF09F06E04D8A42BEF09F02DEF09F068
:1012560032EF09F0000E6E6E000EE2EC0FF0F2A611
:1012660037EF09F039EF09F054EF09F0F2A03EEF3D
:1012760009F040EF09F054EF09F081BE45EF09F09F
:1012860047EF09F054EF09F06E50D8A44DEF09F07E
:101296004FEF09F054EF09F0010E6E6E010EE2EC0D
:1012A6000FF09DAC59EF09F05BEF09F064EF09F020
:1012B6009EAC60EF09F062EF09F064EF09F086EC8E
:1012C6000FF0F2AA69EF09F06BEF09F074EF09F07D
:1012D600F2A470EF09F072EF09F074EF09F03EEC3A
:1012E60010F09DA079EF09F07BEF09F084EF09F08B
:1012F6009EA080EF09F082EF09F084EF09F038EC48
:1013060010F09DA289EF09F08BEF09F094EF09F038
:101316009EA290EF09F092EF09F094EF09F044ECE9
:1013260010F0A0A299EF09F09BEF09F0A4EF09F0E5
:10133600A1A2A0EF09F0A2EF09F0A4EF09F032ECA8
:1013460010F09DA8A9EF09F0ABEF09F0B4EF09F092
:101356009EA8B0EF09F0B2EF09F0B4EF09F048EC3F
:1013660010F09DAAB9EF09F0BBEF09F0C4EF09F040
:101376009EAAC0EF09F0C2EF09F0C4EF09F058ECDD
:1013860010F09DA6C9EF09F0CBEF09F0D4EF09F0F4
:101396009EA6D0EF09F0D2EF09F0D4EF09F04AEC9F
:1013A60010F0A0A6D9EF09F0DBEF09F0E4EF09F0A1
:1013B600A1A6E0EF09F0E2EF09F0E4EF09F04CEC4A
:1013C60010F09DA4E9EF09F0EBEF09F0F4EF09F056
:1013D6009EA4F0EF09F0F2EF09F0F4EF09F056ECF5
:1013E60010F0A0A0F9EF09F0FBEF09F004EF0AF006
:1013F600A1A000EF0AF002EF0AF004EF0AF054ECA5
:1014060010F051C0DAFF50C0D9FF4FC0FBFF4EC0ED
:10141600FAFF72921100010E5A6E52505310D8B450
:1014260017EF0AF019EF0AF02AEF0AF052C0D9FFB7
:1014360053C0DAFFDF30E832E832070B546E070E8E
:10144600546428EF0AF02AEF0AF08DEF0AF0000E36
:101456005A6EAEEF0AF052C0D9FF53C0DAFFDF3042
:10146600E832E832070B546E010E556E542A3EEFF1
:101476000AF0D8905536542E3CEF0AF05550FF0A24
:10148600566E52C0D9FF53C0DAFFDF50070B576EB6
:101496005750020D8A0EF324D96E000EF420DA6E30
:1014A600DECF58F0DDCF59F058C0D9FF59C0DAFF6A
:1014B6005650DF16AEEF0AF052C0D9FF53C0DAFF1E
:1014C600DF30E832E832070B546E010E556E542AAF
:1014D6006FEF0AF0D8905536542E6DEF0AF052C0D1
:1014E600D9FF53C0DAFFDF50070B566E5650020D78
:1014F6008A0EF324D96E000EF420DA6EDECF57F092
:10150600DDCF58F057C0D9FF58C0DAFF5550DF126B
:10151600AEEF0AF052C0D9FF53C0DAFFDFBC96EF38
:101526000AF099EF0AF0010E9AEF0AF0000E546ED7
:10153600556A5550000AD8B4A3EF0AF02AEF0AF00C
:101546005450000AD8B42EEF0AF0010AD8B45FEF5F
:101556000AF02AEF0AF05A501200000E0001B36F8B
:10156600AF51B011D8A4BAEF0AF0BCEF0AF0C0EF41
:101576000AF0000EB46F4BEF0BF0AFC05CF0B0C0DA
:101586005DF031EC0EF00001B46F010EAF255C6E1C
:10159600000EB0215D6E31EC0EF00001B46F000E4E
:1015A600B36FB351AF25B16F000EB021B26F020E0B
:1015B600B1255C6E000EB2215D6E31EC0EF00001BD
:1015C600B32B070EB365EAEF0AF0ECEF0AF0D4EF9F
:1015D6000AF0340E0001B16FF10EE82EFED7B12FDE
:1015E600FCD700D0AFC05FF0B0C060F0380E616EBF
:1015F600AEEC0DF00D0E0001B16FFB0EE82EFED71E
:10160600B12FFCD700D0AFC05FF0B0C060F0380E8D
:10161600616EAEEC0DF0640EE82EFED7AFC05FF043
:10162600B0C060F0380E616EAEEC0DF0AFC05FF08A
:10163600B0C060F0010E616EAEEC0DF0AFC05FF0B1
:10164600B0C060F0020E616EAEEC0DF0AFC05FF0A0
:10165600B0C060F0060E616EAEEC0DF0AFC05FF08C
:10166600B0C060F00C0E616EAEEC0DF0AFC05FF076
:10167600B0C060F0380E616EAEEC0DF0AFC05FF03A
:10168600B0C060F0800E616EAEEC0DF00001B46F7C
:10169600B4511200000E0001AF6FAB51AC11D8A4CB
:1016A60057EF0BF059EF0BF05DEF0BF0000EB06F3C
:1016B600E8EF0BF0ABC05CF0ACC05DF031EC0EF0C7
:1016C6000001B06F010EAB255C6E000EAC215D6EA5
:1016D60031EC0EF00001B06F000EAF6FAF51AB25CD
:1016E600AD6F000EAC21AE6F020EAD255C6E000E26
:1016F600AE215D6E31EC0EF00001AF2B030EAF652F
:1017060087EF0BF089EF0BF071EF0BF0340E000151
:10171600AD6FF10EE82EFED7AD2FFCD700D0ABC0D3
:1017260060F0ACC061F0380E626EF8EC0DF00D0E94
:101736000001AD6FFB0EE82EFED7AD2FFCD700D013
:10174600ABC060F0ACC061F0380E626EF8EC0DF024
:10175600640EE82EFED7ABC060F0ACC061F0380E68
:10176600626EF8EC0DF0ABC060F0ACC061F0010E3B
:10177600626EF8EC0DF0ABC060F0ACC061F0020E2A
:10178600626EF8EC0DF0ABC060F0ACC061F0060E16
:10179600626EF8EC0DF0ABC060F0ACC061F00C0E00
:1017A600626EF8EC0DF0ABC060F0ACC061F0280ED4
:1017B600626EF8EC0DF0ABC060F0ACC061F0800E6C
:1017C600626EF8EC0DF00001B06FB0511200010E20
:1017D6005B6E52505310D8B4F3EF0BF0F5EF0BF0ED
:1017E60006EF0CF052C0D9FF53C0DAFFDF30E83203
:1017F600E832070B556E070E556404EF0CF006EF42
:101806000CF069EF0CF0000E5B6E7EEF0CF052C030
:10181600D9FF53C0DAFFDF30E832E832070B556EE6
:10182600010E566E552A1AEF0CF0D8905636552EE4
:1018360018EF0CF05650FF0A576E52C0D9FF53C02E
:10184600DAFFDF50070B586E5850020D640EF32472
:10185600D96E000EF420DA6EDECF59F0DDCF5AF0E5
:1018660059C0D9FF5AC0DAFF5750DF167EEF0CF089
:1018760052C0D9FF53C0DAFFDF30E832E832070B37
:10188600556E010E566E552A4BEF0CF0D890563613
:10189600552E49EF0CF052C0D9FF53C0DAFFDF5086
:1018A600070B576E5750020D640EF324D96E000EC7
:1018B600F420DA6EDECF58F0DDCF59F058C0D9FFEC
:1018C60059C0DAFF5650DF127EEF0CF05450556EB9
:1018D600566A5650000AD8B473EF0CF006EF0CF0B7
:1018E6005550000AD8B40AEF0CF0010AD8B43BEF01
:1018F6000CF006EF0CF05B501200546EAAEF0CF0E1
:101906009280EBEF0CF09282EBEF0CF09284EBEF0F
:101916000CF09286EBEF0CF0928AEBEF0CF09680CF
:10192600EBEF0CF09682EBEF0CF09684EBEF0CF0FD
:101936009384EBEF0CF09386EBEF0CF09382EBEFD6
:101946000CF09388EBEF0CF09380EBEF0CF0545017
:10195600526E536A5350000AD8B4B4EF0CF0EBEF52
:101966000CF05250000AD8B483EF0CF0010AD8B438
:1019760086EF0CF0030AD8B489EF0CF0010AD8B44C
:101986008CEF0CF0070AD8B48FEF0CF0010AD8B42C
:1019960092EF0CF0030AD8B495EF0CF0010AD8B414
:1019A60098EF0CF00F0AD8B49BEF0CF0010AD8B4EC
:1019B6009EEF0CF0030AD8B4A1EF0CF0010AD8B4DC
:1019C600A4EF0CF0070AD8B4A7EF0CF0EBEF0CF07D
:1019D600120046504710D8B4F3EF0CF0F5EF0CF0B8
:1019E600FEEF0CF048504910D8A4FCEF0CF0FEEFC7
:1019F6000CF002EF0DF0000E4D6E4CEF0DF020EEE8
:101A060006F04650D9264750DA22DFA20DEF0DF038
:101A16000FEF0DF023EF0DF0C350C4CF4AF04B6A21
:101A26004AC04BF04A6A4A26000E4B2248C0D9FFEC
:101A360049C0DAFF4AC0DEFF4BC0DDFF4AEF0DF0BA
:101A460020EE06F04650D9264750DA22DFB22EEFB6
:101A56000DF030EF0DF00FEF0DF0C350C4CF4AF08C
:101A66004B6A4AC04BF04A6A4A26000E4B22060EC3
:101A76004C6E4B344B324A324C2E3CEF0DF048C084
:101A8600D9FF49C0DAFF4AC0DEFF4BC0DDFF010EB9
:101A96004D6E4D50120055505610D8A455EF0DF00E
:101AA60057EF0DF05BEF0DF0000E586EACEF0DF03A
:101AB600C29020EE03F05550D9265650DA22DF5058
:101AC600576E574657465746C0505718C70B5718B4
:101AD600C06E20EE04F05550D9265650DA22DF505B
:101AE600576EC0505718F80B5718C06E20EE05F009
:101AF6005550D9265650DA22DF50576E574657466C
:101B0600C2505718C30B5718C26E20EE05F0555039
:101B1600D9265650DA22DF5080EC0CF09D8C9E9C24
:101B2600F28EF28C55C0D9FF56C0DAFFDECF39F0FF
:101B3600DDCF3AF055C052F056C053F0F2EC0EF03D
:101B460055C052F056C053F0CDEC0EF0C280010ED7
:101B5600586E58501200000E636E5F506010D8A485
:101B6600B7EF0DF0B9EF0DF0BDEF0DF0000E626EA0
:101B7600F6EF0DF05FC052F060C053F0000E546EE9
:101B8600EAEC0BF0000E636E63505F240001AB6F4E
:101B9600000E6020AC6F020EAB25526E000EAC211B
:101BA600536E63C0ADF061C0AEF0AD2BDDEF0DF04E
:101BB600D890AE33AD2FDBEF0DF00001AE51010B27
:101BC600546EEAEC0BF0632A070E6364EDEF0DF03A
:101BD600EFEF0DF0C7EF0DF05FC05CF060C05DF099
:101BE60050EC0FF0626E6250120060506110D8A483
:101BF600FFEF0DF001EF0EF005EF0EF0000E636E35
:101C06002FEF0EF060C052F061C053F0000E546E1C
:101C1600EAEC0BF0636E60C05CF061C05DF06238A8
:101C26000F0B5E6E67EC0EF0636E60C05CF061C019
:101C36005DF06BEC0FF0636E60C05CF061C05DF050
:101C460062C05EF067EC0EF0636E60C05CF061C06F
:101C56005DF06BEC0FF0636E635012005C505D102C
:101C6600D8B438EF0EF03AEF0EF04BEF0EF05CC042
:101C7600D9FF5DC0DAFFDF30E832E832070B5E6E6F
:101C8600070E5E6449EF0EF04BEF0EF04FEF0EF0CD
:101C9600000E5F6E65EF0EF05CC052F05DC053F053
:101CA6000EEC0AF05F6E5CC052F05DC053F05CC093
:101CB600D9FF5DC0DAFF000EDFBE010E546EEAECFE
:101CC6000BF05F6E5F501200020E5C24526E000E27
:101CD6005D20536E5E50010B546EEAEC0BF0030E62
:101CE6005C24526E000E5D20536ED8905E30010B60
:101CF600546EEAEC0BF0040E5C24526E000E5D206E
:101D0600536E5E40E8423F0B010B546EEAEC0BF05B
:101D1600050E5C24526E000E5D20536E5E38E8465A
:101D26001F0B010B546EEAEC0BF05F6E5F50120056
:101D36003A0EF66E1F0EF76E000EF86E00EE80F08D
:101D460010EE2BF00900F5CFEEFFE550E150FAE179
:101D5600560EF66E200EF76E000EF86E00EE64F06C
:101D660010EE0EF00900F5CFEEFFE550E150FAE176
:101D76000001BA6BB96BB86BB76BB66BB56B00EE9F
:101D860001F0450EEE6AE806FDE1729072920001DE
:101D9600D4EF0FF020EE06F05250D9265350DA2237
:101DA600DFA0D8EF0EF0DAEF0EF0DEEF0EF0C18A0C
:101DB600C188F1EF0EF020EE06F05250D9265350AE
:101DC600DA22DFB2E9EF0EF0EBEF0EF0EFEF0EF0F6
:101DD600C19AC198F1EF0EF0C19AC198120020EE97
:101DE60006F05250D9265350DA22DFA2FDEF0EF04C
:101DF600FFEF0EF002EF0FF0C08E13EF0FF020EEA4
:101E060006F05250D9265350DA22DFB20DEF0FF00A
:101E16000FEF0FF012EF0FF0C09E13EF0FF0C08E12
:101E260012005A505B10D8A41BEF0FF01DEF0FF0F5
:101E360021EF0FF0000E5D6E31EF0FF05AC055F036
:101E46005BC056F05CC057F033EC0FF05D6E5AC0C5
:101E560052F05BC053F0B3EC0FF05D6E5D501200B4
:101E660055505610D8A43AEF0FF03CEF0FF040EF64
:101E76000FF0000E596E4EEF0FF057C058F058464F
:101E86005846C2505818C30B5818C26E575080ECAB
:101E96000CF0010E596E59501200010E5C24526E60
:101EA600000E5D20536E010E546EEAEC0BF0030E2D
:101EB600E82EFED700F0010E5C24526E000E5D2067
:101EC600536E000E546EEAEC0BF05E6E5E5012001E
:101ED600010E5C24526E000E5D20536E010E546E90
:101EE600EAEC0BF0030EE82EFED700F0010E5C24A0
:101EF600526E000E5D20536E000E546EEAEC0BF02F
:101F06005E6E5E5012009E9C39503A10D8B48EEF29
:101F16000FF090EF0FF09CEF0FF002D89CEF0FF050
:101F26000500FA6E3950FD6E3A50FE6EFF6AFA50A1
:101F360012001200800F810F820F830F840F920F01
:101F4600930F940F950F960F323A030B131B232B07
:0F1F5600333B2C200005050002020A121A222A32
:101F660052505310D8A4BAEF0FF0BCEF0FF0C0EFE9
:101F76000FF0000E546EC3EF0FF0C282010E546EC6
:101F860054501200A50E0001AB6F000EAC6F4DEC65
:101F96000BF0940E0001AF6F000EB06FB0EC0AF0BC
:101FA600120022EC10F09E0E5A6E000E5B6E000EB2
:101FB6005C6E14EC0FF0D6EF0FF007EF00F0466EF4
:101FC600F2904650D8A4EAEF0FF0ECEF0FF0EEEFE8
:101FD6000FF0EEEF0FF01200466EF2904650D8A4C6
:101FE600F7EF0FF0F9EF0FF0FBEF0FF0FBEF0FF04D
:101FF6001200466EF2904650D8A404EF10F006EF99
:1020060010F008EF10F008EF10F01200466EF29094
:102016004650D8A411EF10F013EF10F015EF10F0A2
:1020260015EF10F012003B2A9E0E466E000E476E0C
:10203600440E486E000E496EECEC0CF01200C5EC36
:102046000FF09E0E556E000E566E4EEC0DF0120001
:10205600890F8A0F8B0F8C0F8D0F01010101A19241
:102066000C50B36E0BC0B2FF12009E901250CF6E92
:1020760011C0CEFF1200F2941650D76E15C0D6FFCF
:1020860012009E923CC0CCFF12009D9812009E96B4
:102096001200A1961200F0921200F0901200F29235
:0C20A6001200A19012009E941200120083
:020000040020DA
:08000000FFFFFFFFFFFFFFFF00
:020000040030CA
:0E000000FF020912FF8181FF0FC00FE00F40C9
:00000001FF
